{
  "contractName": "Prediction",
  "abi": [
    {
      "constant": true,
      "inputs": [],
      "name": "requiredStake",
      "outputs": [
        {
          "name": "",
          "type": "uint256"
        }
      ],
      "payable": false,
      "stateMutability": "view",
      "type": "function"
    },
    {
      "constant": true,
      "inputs": [
        {
          "name": "",
          "type": "uint256"
        }
      ],
      "name": "questions",
      "outputs": [
        {
          "name": "theQuestion",
          "type": "string"
        },
        {
          "name": "asker",
          "type": "address"
        },
        {
          "name": "value",
          "type": "uint256"
        },
        {
          "name": "totalValue",
          "type": "uint256"
        }
      ],
      "payable": false,
      "stateMutability": "view",
      "type": "function"
    },
    {
      "constant": true,
      "inputs": [],
      "name": "owner",
      "outputs": [
        {
          "name": "",
          "type": "address"
        }
      ],
      "payable": false,
      "stateMutability": "view",
      "type": "function"
    },
    {
      "constant": true,
      "inputs": [
        {
          "name": "",
          "type": "address"
        },
        {
          "name": "",
          "type": "uint256"
        }
      ],
      "name": "stakedValues",
      "outputs": [
        {
          "name": "",
          "type": "uint256"
        }
      ],
      "payable": false,
      "stateMutability": "view",
      "type": "function"
    },
    {
      "constant": true,
      "inputs": [
        {
          "name": "",
          "type": "address"
        },
        {
          "name": "",
          "type": "uint256"
        }
      ],
      "name": "theAnswer",
      "outputs": [
        {
          "name": "",
          "type": "bool"
        }
      ],
      "payable": false,
      "stateMutability": "view",
      "type": "function"
    },
    {
      "inputs": [],
      "payable": false,
      "stateMutability": "nonpayable",
      "type": "constructor"
    },
    {
      "constant": false,
      "inputs": [
        {
          "name": "val",
          "type": "uint256"
        }
      ],
      "name": "setRequiredStake",
      "outputs": [],
      "payable": false,
      "stateMutability": "nonpayable",
      "type": "function"
    },
    {
      "constant": false,
      "inputs": [
        {
          "name": "question",
          "type": "string"
        }
      ],
      "name": "proposeAQuestion",
      "outputs": [],
      "payable": true,
      "stateMutability": "payable",
      "type": "function"
    },
    {
      "constant": false,
      "inputs": [
        {
          "name": "YN",
          "type": "bool"
        },
        {
          "name": "id",
          "type": "uint256"
        }
      ],
      "name": "respondAndStake",
      "outputs": [],
      "payable": true,
      "stateMutability": "payable",
      "type": "function"
    },
    {
      "constant": true,
      "inputs": [
        {
          "name": "id",
          "type": "uint256"
        }
      ],
      "name": "grabTotalValue",
      "outputs": [
        {
          "name": "",
          "type": "uint256"
        }
      ],
      "payable": false,
      "stateMutability": "view",
      "type": "function"
    }
  ],
  "bytecode": "0x608060405261271060025534801561001657600080fd5b5033600160006101000a81548173ffffffffffffffffffffffffffffffffffffffff021916908373ffffffffffffffffffffffffffffffffffffffff160217905550610940806100676000396000f300608060405260043610610099576000357c0100000000000000000000000000000000000000000000000000000000900463ffffffff16806319cb355d1461009e57806330bb1349146100c957806331b1b9781461010a5780634ef9f86f146101f157806361e84e781461024d5780638da5cb5b14610279578063af9cb9f6146102d0578063d0ac843a146102fd578063da5323a11461035e575b600080fd5b3480156100aa57600080fd5b506100b36103c3565b6040518082815260200191505060405180910390f35b3480156100d557600080fd5b506100f4600480360381019080803590602001909291905050506103c9565b6040518082815260200191505060405180910390f35b34801561011657600080fd5b50610135600480360381019080803590602001909291905050506103f2565b60405180806020018573ffffffffffffffffffffffffffffffffffffffff1673ffffffffffffffffffffffffffffffffffffffff168152602001848152602001838152602001828103825286818151815260200191508051906020019080838360005b838110156101b3578082015181840152602081019050610198565b50505050905090810190601f1680156101e05780820380516001836020036101000a031916815260200191505b509550505050505060405180910390f35b61024b600480360381019080803590602001908201803590602001908080601f01602080910402602001604051908101604052809392919081815260200183838082843782019150505050505091929192905050506104e9565b005b610277600480360381019080803515159060200190929190803590602001909291905050506105e9565b005b34801561028557600080fd5b5061028e610750565b604051808273ffffffffffffffffffffffffffffffffffffffff1673ffffffffffffffffffffffffffffffffffffffff16815260200191505060405180910390f35b3480156102dc57600080fd5b506102fb60048036038101908080359060200190929190505050610776565b005b34801561030957600080fd5b50610348600480360381019080803573ffffffffffffffffffffffffffffffffffffffff169060200190929190803590602001909291905050506107dc565b6040518082815260200191505060405180910390f35b34801561036a57600080fd5b506103a9600480360381019080803573ffffffffffffffffffffffffffffffffffffffff16906020019092919080359060200190929190505050610801565b604051808215151515815260200191505060405180910390f35b60025481565b600080828154811015156103d957fe5b9060005260206000209060040201600301549050919050565b60008181548110151561040157fe5b9060005260206000209060040201600091509050806000018054600181600116156101000203166002900480601f0160208091040260200160405190810160405280929190818152602001828054600181600116156101000203166002900480156104ad5780601f10610482576101008083540402835291602001916104ad565b820191906000526020600020905b81548152906001019060200180831161049057829003601f168201915b5050505050908060010160009054906101000a900473ffffffffffffffffffffffffffffffffffffffff16908060020154908060030154905084565b6104f1610830565b600254341015151561050257600080fd5b6080604051908101604052808381526020013373ffffffffffffffffffffffffffffffffffffffff16815260200134815260200134815250905060008190806001815401808255809150509060018203906000526020600020906004020160009091929091909150600082015181600001908051906020019061058692919061086f565b5060208201518160010160006101000a81548173ffffffffffffffffffffffffffffffffffffffff021916908373ffffffffffffffffffffffffffffffffffffffff16021790555060408201518160020155606082015181600301555050505050565b60025434101515156105fa57600080fd5b34600360003373ffffffffffffffffffffffffffffffffffffffff1673ffffffffffffffffffffffffffffffffffffffff16815260200190815260200160002060008381526020019081526020016000208190555081600460003373ffffffffffffffffffffffffffffffffffffffff1673ffffffffffffffffffffffffffffffffffffffff168152602001908152602001600020600083815260200190815260200160002060006101000a81548160ff0219169083151502179055506000818154811015156106c657fe5b9060005260206000209060040201600301546000828154811015156106e757fe5b90600052602060002090600402016003015434011015151561070557fe5b60008181548110151561071457fe5b906000526020600020906004020160030154340160008281548110151561073757fe5b9060005260206000209060040201600301819055505050565b600160009054906101000a900473ffffffffffffffffffffffffffffffffffffffff1681565b600160009054906101000a900473ffffffffffffffffffffffffffffffffffffffff1673ffffffffffffffffffffffffffffffffffffffff163373ffffffffffffffffffffffffffffffffffffffff161415156107d257600080fd5b8060028190555050565b6003602052816000526040600020602052806000526040600020600091509150505481565b60046020528160005260406000206020528060005260406000206000915091509054906101000a900460ff1681565b60806040519081016040528060608152602001600073ffffffffffffffffffffffffffffffffffffffff16815260200160008152602001600081525090565b828054600181600116156101000203166002900490600052602060002090601f016020900481019282601f106108b057805160ff19168380011785556108de565b828001600101855582156108de579182015b828111156108dd5782518255916020019190600101906108c2565b5b5090506108eb91906108ef565b5090565b61091191905b8082111561090d5760008160009055506001016108f5565b5090565b905600a165627a7a72305820a738a37c060594cd3d3ed93543c2e776c757146b91ce6d8566b9b1b405f4862e0029",
  "source": "// Set compiler version \n\npragma solidity ^0.4.23; \n\ncontract Prediction {\n    \n    struct Questions {\n        string theQuestion;\n        address asker;\n        uint value;\n        uint totalValue; \n    } \n    \n    Questions[] public questions; \n    \n    address  public owner; \n    \n    uint256 public requiredStake = 10000; \n    \n    //User address --> question id ---> eth value sent in\n    mapping(address => mapping(uint256 => uint256)) public stakedValues; \n     mapping(address => mapping(uint256 => bool)) public theAnswer; \n    \n    //function Prdiction() {}\n    constructor() {\n        owner = msg.sender;     \n    }\n    \n    modifier onlyOwner() {\n        require(msg.sender == owner);\n        _;\n    }\n    \n    modifier requireStake() {\n        require(msg.value >= requiredStake);\n        _;\n    }\n    \n    function setRequiredStake(uint256 val) external onlyOwner {\n        requiredStake = val; \n    }\n    \n    function proposeAQuestion(string question) public payable requireStake {\n        //require(msg.value >= requiredStake);\n        //revert(msg.value >= 10000, \"Not enough wei sent to contract\");\n        Questions memory temp = Questions({\n            theQuestion: question, \n            asker: msg.sender, \n            value: msg.value, \n            totalValue: msg.value\n        });\n        questions.push(temp);\n    }\n    \n    function respondAndStake(bool YN, uint id) external payable requireStake {\n        stakedValues[msg.sender][id] = msg.value; \n        theAnswer[msg.sender][id] = YN;\n        assert(msg.value + questions[id].totalValue >= questions[id].totalValue);\n        questions[id].totalValue = msg.value + questions[id].totalValue;\n    }\n    \n    function grabTotalValue(uint id) public view returns(uint) {\n        return questions[id].totalValue; \n    }\n    \n    \n    \n}\n\n",
  "sourcePath": "/home/karen/EthereumBuidl/contracts/Prediction.sol",
  "compiler": {
    "name": "solc",
    "version": "0.4.23+commit.124ca40d.Emscripten.clang"
  },
  "schemaVersion": "2.0.0",
  "updatedAt": "2018-05-08T01:21:31.079Z"
}